:020000040000FA
:1000000006308A00692E0000FF00030E8301A10064
:100010007F08A0000A08A7008A01A00E0408A20019
:100020007708A3007808A4007908A5007A08A6003C
:10003000831383128B1E1E280B197F288B1D2228E9
:100040000B18FC288C308400001C28280C184C2B22
:100050008D308400801E2E288D1A262B22088400C5
:100060002308F7002408F8002508F9002608FA00FC
:1000700027088A00210E8300FF0E7F0E09000A1058
:100080008A100A118207003400348534A4342534E0
:10009000C83425348C340D3492348534B0340D3466
:1000A000C234003400340A108A100A118207003466
:1000B00005340334013406340434023400340A10A5
:1000C0008A100A11820700340334063402340534DE
:1000D0000134043400340A108A100A1182070034F3
:1000E00000340D34C2348534B0340D3492342534A8
:1000F0008C342534C8348534A4340034003443149B
:10010000C50B8A28C3140630C500C70B8A28C3153F
:100110000430C700C60B8F2843150830C600C90B32
:10012000C428C316C430C900CB0B9928C3170530A7
:10013000CB00CA0B9E2843170230CA00CC0BC42840
:1001400044140A30CC00CE0BC42844150A30CE002B
:10015000CF0BC428C41554080319D503D40BB328F6
:10016000D5080319A9170630CF00D00BBA284416BA
:100170000F30D000D10BC428C4163C30D100D20BB4
:10018000C42844170A30D2000B118A112E280718F0
:1001900007100800831614138312071C07140800A5
:1001A000C72083163108FA01B4008312130883169E
:1001B0003408831293008316140C031CDC28B3014B
:1001C000831213088316B2008312130883163008B3
:1001D000831293008316140C031CEB28B3018312C3
:1001E00013088316B2008312CA2083163208F8005F
:1001F0003308F900831208008316AF01831232140A
:1002000006088316AF000730AF052F088312B10030
:10021000D7110F08FA000E08F7000F087A02031D25
:1002200009297708B6007A08B7008F018E01B70850
:10023000031D1E2936083B3C0318232BBF01321136
:10024000D61E27296408E403003A0319D612561C67
:1002500039290310310D8316B000300A83123F2074
:10026000FA008316300883123F20E0007A08E1008C
:1002700048290310310D8316B000300A83126B2019
:10028000FA008316300883126B20E0007A08E10040
:10029000571D562965085320F80083162F02031DA9
:1002A00054298312D71583166029831265085F20AD
:1002B000F80083162F02031D60298312D7158316B9
:1002C00000308312561801306802031DE7016508EB
:1002D000053C031D712983162F08043C0319A4292A
:1002E00083126508043C031D7B2983162F08063CF6
:1002F0000319A42983126508063C031D852983166A
:100300002F08023C0319A42983126508023C031D2F
:100310008F2983162F08033C0319A429831265082B
:10032000033C031D9B2983162F0B972999298312C0
:100330009B29A4298312650BAF2983162F08053C3E
:100340000319A4298312AF29FF308312D807031C95
:10035000D907031CDA07031CDB07E703B8290130C0
:10036000D8070318D90A0319DA0A0319DB0AE70ABE
:10037000D61CC929AC19C92961088316B10083129A
:1003800060088316B0008312D0207908E300780853
:10039000E200AC1D142B40305807F7005908F80054
:1003A000003003180130F8075A08F900003003182C
:1003B0000130F9075B08FA00003003180130FA0732
:1003C000FA1FE529DF1FFD29E729DF1B192A7A0813
:1003D0005F02031C192A031DFD2979085E02031C14
:1003E000192A031DFD2978085D02031C192A031D23
:1003F000FD295C0877020318192A0310310D8316B2
:10040000B000300A83126B20FA0083163008831282
:100410006B20E0007A08E10061088316B1008312C6
:1004200060088316B0008312D0207908E3007808B2
:10043000E20040305802F7005908F8000030031C71
:100440000130F8025A08F9000030031C0130F902AB
:100450005B08FA000030031C0130FA02DF1F332A68
:10046000FA1F4B2A352AFA1B672A5F087A02031CF7
:10047000672A031D4B2A5E087902031C672A031DA5
:100480004B2A5D087802031C672A031D4B2A770854
:100490005C020318672A0310310D8316B000300A7E
:1004A00083123F20FA008316300883123F20E000B9
:1004B0007A08E10061088316B10083126008831690
:1004C000B0008312D0207908E3007808E2004030C1
:1004D0005C02F7005D08F8000030031C0130F802F0
:1004E0005E08F9000030031C0130F9025F08FA00D1
:1004F0000030031C0130FA02FA1F812ADB1F992AFF
:10050000832ADB1BCE2A7A085B02031CCE2A031D3A
:10051000992A79085A02031CCE2A031D992A7808C1
:100520005902031CCE2A031D992A58087702031882
:10053000CE2A40305C07F7005D08F8000030031851
:100540000130F8075E08F900003003180130F907A0
:100550005F08FA00003003180130FA07DB1FB32AE6
:10056000FA1FCB2AB52AFA1BCE2A5B087A02031C93
:10057000CE2A031DCB2A5A087902031CCE2A031D5A
:10058000CB2A59087802031CCE2A031DCB2A7708F0
:1005900058020318CE2AAE010130AD00E60BD52A71
:1005A0000A30E600AD0A0319AE0AAE08031DDC2AC4
:1005B0002D084F3C0318DF2AAE015030AD0040300B
:1005C0005C07F7005D08F800063003180730F807ED
:1005D0005E08F900003003180130F9075F08FA00DF
:1005E000003003180130FA07FA1FF92ADB1F112B1C
:1005F000FB2ADB1B132B7A085B02031C132B031D46
:10060000112B79085A02031C132B031D112B780898
:100610005902031C132B031D112B580877020318D2
:10062000132BAC11B2111C2B5B08DF005A08DE0043
:100630005908DD005808DC0083162F088312E500F6
:10064000E8015618E80A0B108A112E28AC172C174F
:100650003216AC19492B2D080319AE03AD0B362BFE
:10066000AE08031D362BAE010130AD002E08F90097
:100670002D08F800F90CF80CF90CF80CF90C7808B6
:100680009500F90C790C3039F7001708CF39770449
:1006900097008D128A112E28FF30B700B6000C107B
:1006A0008A112E28E301E201E101E001E1010730B6
:1006B000E000A8018B1BA8178B1361088316B100FB
:1006C000831260088316B0008312D020A81B8B17FA
:1006D0007908E3007808E2000800713083168F0083
:1006E0000F080108C03901388100353083129000AD
:1006F0000030F800043892006530831692008312AF
:100700006E116E0883168700831207118316091372
:100710000C308312970083169B019C018312950174
:10072000A230831685002F30860010308700831298
:10073000EE000130831695008113151495141515DC
:10074000951515160730960097019717971683127F
:100750000317071487108712871707158711891643
:1007600003139412EE126E088316870083126E161E
:100770006E08831687008312EE116E0883168700B9
:100780002130831294000030831694005530831278
:10079000C2000630C5000830C6000430C70005306E
:1007A000C800C430C9000230CA000530CB000A308E
:1007B000CC00CE000630CF000F30D0003C30D1004E
:1007C0000A30D2000230D5006730D400CA2052234C
:1007D000BD2E2230831685000F30860083121F1332
:1007E0009F1783169F1783121F1483160317090878
:1007F000C0390238890003131F129F1210300317EB
:1008000088000730031397048312BE2E7D308400C6
:100810008313000803191D2C0230F800BF30F700C5
:100820006400F70B102CF80B0E2C9630F700F70B2A
:10083000172C1A2C6400800B0C2C08008B168B15BF
:10084000FF3003179604831603138D160C14C03063
:1008500083128B04C62E57117E185715AC127E18C2
:10086000AC16D6107D18D614D61C422CAC19422CCE
:10087000AC110530E400A8018B1BA8178B130B14D7
:10088000A81B8B17D618462CAC1152235611D6181C
:10089000561508000030AC1A01307B020319542CA5
:1008A0002C13AE010130AD002C1F582C2C138A2CB8
:1008B000AC198A2CAC1F8A2CD71C8A2C03103B0C39
:1008C000FA003A0CF900F8007A083902031C742C7B
:1008D000031D6E2C78083802031C742C4108BD00DF
:1008E0004008BC00AC138A2CFC0B8A2C6430FC0042
:1008F000AD0A0319AE0A2E08003C03188A2CFF3AF1
:10090000031D862C2D088F3C03188A2C0130AE0065
:100910009030AD00FB01AC1AFB0A2E08F9002D083F
:10092000F800F90CF80CF90CF80CF90C78089500A3
:10093000F90C790C3039F7001708CF397704970094
:10094000DC2EFD010430FE007E0DF700F70DFC30BB
:10095000F7051F08C33977049F0064000C30F700C7
:10096000F70BB02CB32C9F149F18B42C1E08FA0060
:1009700083167A08A100210CFA001E0CF900FA0C6B
:10098000F90C3F30FA057908F8007808FD007D0879
:10099000193C0318CF2C7D08983C0318D12C00304B
:1009A000D22C0130F8008312E02E3608F007370809
:1009B0000318370FF1076F0B412DEF010310710C76
:1009C000B900700CB800F101F0018316A3010630E4
:1009D000A2005B30A1009B30A000A701A6018312FA
:1009E00039088316A500831238088316A400F7017E
:1009F000F801F901FA01A801A901AA01AB01270830
:100A00002604250424040319352D2030AC000310DE
:100A1000A00DA10DA20DA30DA80DA90DAA0DAB0D42
:100A200027082B02031D1E2D26082A02031D1E2D3A
:100A300025082902031D1E2D24082802031C2F2D22
:100A40002408A8022508031C250FA9022608031C58
:100A5000260FAA022708031C270FAB020314F70D69
:100A6000F80DF90DFA0DAC0B072DA8308400831397
:100A700078088312B9007708B8000130F800452DD6
:100A8000452DEF0A0030F800452DE92EFE01FD014D
:100A90008316A101A001A301A201A4017D30A6003B
:100AA000A50100308312AC1A01306D0203195B2DD1
:100AB000BD01BC01D613D61B5F2DD618632DBD0119
:100AC000BC015612682ED71D752D38083A02F70062
:100AD0003B08FA003908031C390FFA02770883161D
:100AE000A0007A08A100832D83123A083807F80085
:100AF0003908FA003B0803183B0FFA0778088316F9
:100B0000A0007A08A1002108A8002008A700AA01D7
:100B10002030A90028082A068039AC00A81F952D8E
:100B2000A709A809A70A0319A80AAA1F9C2DA909A1
:100B3000AA09A90A0319AA0AF801F901F701FA0199
:100B40002A08031DA62D29080319C02D1030AB005B
:100B50000310A70DA80DF70DFA0D2A087A02031D40
:100B6000B32D29087702031CBC2D2908F702031CAA
:100B7000FA032A08FA020314F80DF90DAB0BA82D9D
:100B8000AC1FC72DF809F909F80A0319F90A790801
:100B9000A3007808A2002308A1002208A000831265
:100BA000AC1FD42DD718682E8316A401A11BA40A4C
:100BB000A4080319E82D2008003CF700FA012108D9
:100BC000031C210FFA027708A5007A08A600EC2D75
:100BD0002108A6002008A5008312EC0BFF2D831628
:100BE00020088312BC07831621080318210FF92D52
:100BF000FC2D8312BD0783160A308312EC00BD1F43
:100C00000F2E3D08FE3C031C0F2E031D0B2E3C082F
:100C1000673C031C0F2EFE30BD006830BC00BD1BBE
:100C2000202E3D08003C0318202EFF3A031D1C2EE9
:100C30003C08983C0318202E0130BD009830BC00C1
:100C40003C0883162007FD002108FE0083123D08A2
:100C500003183D0FFE07FE1F362E5610AC1E56140D
:100C6000FD09FE09FD0A0319FE0A392E5610AC1AB9
:100C70005614FE1B4A2E7E08003C03184A2EFF3AEB
:100C8000031D462E7D08983C03184A2E0130FE00B5
:100C90009830FD007E08AE007D08AD00D7142D0809
:100CA000EA072E0803182E0FEB07E90B652E6B0CD5
:100CB000C1006A0CC000C10CC00CC10CC00C1F30BC
:100CC000C1050830E900EB01EA01ED01AC1AED0ABB
:100CD000ED2E840183131F308305A901AA01AB0106
:100CE000AC01AE010530AD00B001AF0132100630ED
:100CF000B300B2103211B211BD01BC0132121E306C
:100D0000BE00BF01C101C001713083168F000F0802
:100D10008312D701D601DB01DA01D901D801DF0145
:100D2000DE01DD01DC01E5010A30E600E701E80152
:100D30000830E9000A30EC00EF01F101F001F301A5
:100D4000F201F401F601F5016430FC00831603178B
:100D50000908C039890003131F129F1200300317BE
:100D6000880083128701880189010313EA01EB01DE
:100D7000ED01FF30EE00FB016D2BE92B6430FD002F
:100D800006240230BB00BC30BA001E2C321CD22E0E
:100D9000640032106430FD0006242C10FD01FE01B9
:100DA0002B24C62E2C140130FD00FE002B24431CE6
:100DB000DB2E431064004A2CC31DED2EC311A12C61
:100DC000F808031DE82E2C14FD010130FE002B2431
:100DD000D52CF8080319ED2E462DC31E122FC31271
:100DE000321EF82E3212BE0BF72EAC155223FA2EFD
:100DF0001E30BE003F081D3C0318032FAC19032F03
:100E0000AC155223122F3F08313C0318102FAC1D94
:100E1000102FB219102F3230BF003215B215112F1A
:100E20003211BF0A431F1B2F4313321D1B2F2D08E6
:100E30000319AE03AD03441C1E2F4410441D362F6E
:100E40004411AC1D302FB308031D2E2FB2182D2FC7
:100E50002E08B0002D08AF00B2142F2FB303362F89
:100E60000630B300B0010530AF00B210441F3F2F71
:100E70004413AC1D3F2F3008AE002F08AD00D72E15
:100E80006300FF3FFF3FFF3FFF3FFF3FFF3FFF3F4D
:100E9000FF3FFF3FFF3FFF3FFF3FFF3FFF3FFF3F62
:100EA000FF3FFF3FFF3FFF3FFF3FFF3FFF3FFF3F52
:100EB000FF3FFF3FFF3FFF3FFF3FFF3FFF3FFF3F42
:100EC000FF3FFF3FFF3FFF3FFF3FFF3FFF3FFF3F32
:04400E00EC2FFF3F55
:08400000FF3FFF3FFF3FFF3FC0
:02401200FF3F6E
:00000001FF
