:020000040000FA
:100000000050040005000000261400003E1400000B
:100010005C1400003014000048140000521400006A
:10002000661400005A1500005A1500005A15000009
:100030005A150000A61300005A1500005A150000BA
:100040005A1500005A150000D61300005A1500007A
:100050005A1500008C1400005A1500005A150000B3
:100060005A1500005A1500005A150000FE10000035
:100070005A1500007E1300005A1500005A150000A2
:100080005A1500005A1500005A1500005A150000B4
:100090005A150000F61300005A1500005A1500000A
:1000A0005A1500005A1500005A1500005A15000094
:1000B0005A1500005A1500005A1500005A15000084
:1000C0005A1500005A1500005A1500005A15000074
:1000D0005A1500005A1500005A1500005A15000064
:1000E0005A1500005A1500005A1500005A15000054
:1000F0005A1500005A1500005A1500005A15000044
:100100005A1500005A1500005A1500005A15000033
:100110005A1500005A1500005A1500005A15000023
:100120005A1500005A1500005A1500005A15000013
:100130005A1500005A1500005A1500005A15000003
:100140005A1500005A1500005A1500005A150000F3
:100150005A1500005A1500005A1500005A150000E3
:100160005A1500005A1500005A1500005A150000D3
:100170005A1500005A1500005A1500005A150000C3
:100180005A1500005A1500005A1500005A150000B3
:100190005A1500005A1500005A1500005A150000A3
:1001A0005A1500005A1500005A1500005A15000093
:1001B0005A1500005A1500005A1500005A15000083
:1001C0005A1500005A1500005A1500005A15000073
:1001D0005A1500005A1500005A1500005A15000063
:1001E0005A1500005A1500005A1500005A15000053
:1001F0005A1500005A1500005A1500005A15000043
:100200005A1500005A1500005A1500005A15000032
:100210005A1500005A1500005A1500005A15000022
:100220005A1500005A1500005A1500005A15000012
:100230005A1500005A1500005A1500005A15000002
:100240005A1500005A1500005A1500005A150000F2
:100250005A1500005A1500005A1500005A150000E2
:100260005A1500005A1500005A1500005A150000D2
:100270005A1500005A1500005A1500005A150000C2
:100280005A150000FFFFFF00FFFFFF00FFFFFF0008
:10029000FFFFFF00FFFFFF00FFFFFF00FFFFFF006A
:1002A000FFFFFF00FFFFFF00FFFFFF00FFFFFF005A
:1002B000FFFFFF00FFFFFF00FFFFFF00FFFFFF004A
:1002C000FFFFFF00FFFFFF00FFFFFF00FFFFFF003A
:1002D000FFFFFF00FFFFFF00FFFFFF00FFFFFF002A
:1002E000FFFFFF00FFFFFF00FFFFFF00FFFFFF001A
:1002F000FFFFFF00FFFFFF00FFFFFF00FFFFFF000A
:10030000FFFFFF00FFFFFF00FFFFFF00FFFFFF00F9
:10031000FFFFFF00FFFFFF00FFFFFF00FFFFFF00E9
:10032000FFFFFF00FFFFFF00FFFFFF00FFFFFF00D9
:10033000FFFFFF00FFFFFF00FFFFFF00FFFFFF00C9
:10034000FFFFFF00FFFFFF00FFFFFF00FFFFFF00B9
:10035000FFFFFF00FFFFFF00FFFFFF00FFFFFF00A9
:10036000FFFFFF00FFFFFF00FFFFFF00FFFFFF0099
:10037000FFFFFF00FFFFFF00FFFFFF00FFFFFF0089
:10038000FFFFFF00FFFFFF00FFFFFF00FFFFFF0079
:10039000FFFFFF00FFFFFF00FFFFFF00FFFFFF0069
:1003A000FFFFFF00FFFFFF00FFFFFF00FFFFFF0059
:1003B000FFFFFF00FFFFFF00FFFFFF00FFFFFF0049
:1003C000FFFFFF00FFFFFF00FFFFFF00FFFFFF0039
:1003D000FFFFFF00FFFFFF00FFFFFF00FFFFFF0029
:1003E000FFFFFF00FFFFFF00FFFFFF00FFFFFF0019
:1003F000FFFFFF00FFFFFF00FFFFFF00FFFFFF0009
:1004000000C100008140000001C0000080410000E8
:1004100001C000008041000000C1000081400000D8
:1004200001C000008041000000C1000081400000C8
:1004300000C100008140000001C0000080410000B8
:1004400001C000008041000000C1000081400000A8
:1004500000C100008140000001C000008041000098
:1004600000C100008140000001C000008041000088
:1004700001C000008041000000C100008140000078
:1004800001C000008041000000C100008140000068
:1004900000C100008140000001C000008041000058
:1004A00000C100008140000001C000008041000048
:1004B00001C000008041000000C100008140000038
:1004C00000C100008140000001C000008041000028
:1004D00001C000008041000000C100008140000018
:1004E00001C000008041000000C100008140000008
:1004F00000C100008140000001C0000080410000F8
:1005000001C000008041000000C1000081400000E7
:1005100000C100008140000001C0000080410000D7
:1005200000C100008140000001C0000080410000C7
:1005300001C000008041000000C1000081400000B7
:1005400000C100008140000001C0000080410000A7
:1005500001C000008041000000C100008140000097
:1005600001C000008041000000C100008140000087
:1005700000C100008140000001C000008041000077
:1005800000C100008140000001C000008041000067
:1005900001C000008041000000C100008140000057
:1005A00001C000008041000000C100008140000047
:1005B00000C100008140000001C000008041000037
:1005C00001C000008041000000C100008140000027
:1005D00000C100008140000001C000008041000017
:1005E00000C100008140000001C000008041000007
:1005F00001C000008041000000C1000081400000F7
:1006000000C00000C1010000C303000002C20000DE
:10061000C606000007C7000005C50000C4040000AE
:10062000CC0C00000DCD00000FCF0000CE0E00005E
:100630000ACA0000CB0B0000C909000008C800006E
:10064000D818000019D900001BDB0000DA1A0000DE
:100650001EDE0000DF1F0000DD1D00001CDC0000AE
:1006600014D40000D5150000D717000016D60000DE
:10067000D212000013D3000011D10000D0100000EE
:10068000F030000031F1000033F30000F2320000DE
:1006900036F60000F7370000F535000034F40000AE
:1006A0003CFC0000FD3D0000FF3F00003EFE00005E
:1006B000FA3A00003BFB000039F90000F83800006E
:1006C00028E80000E9290000EB2B00002AEA0000DE
:1006D000EE2E00002FEF00002DED0000EC2C0000AE
:1006E000E424000025E5000027E70000E6260000DE
:1006F00022E20000E3230000E121000020E00000EE
:10070000A060000061A1000063A30000A2620000DD
:1007100066A60000A7670000A565000064A40000AD
:100720006CAC0000AD6D0000AF6F00006EAE00005D
:10073000AA6A00006BAB000069A90000A86800006D
:1007400078B80000B9790000BB7B00007ABA0000DD
:10075000BE7E00007FBF00007DBD0000BC7C0000AD
:10076000B474000075B5000077B70000B6760000DD
:1007700072B20000B3730000B171000070B00000ED
:1007800050900000915100009353000052920000DD
:1007900096560000579700005595000094540000AD
:1007A0009C5C00005D9D00005F9F00009E5E00005D
:1007B0005A9A00009B5B000099590000589800006D
:1007C00088480000498900004B8B00008A4A0000DD
:1007D0004E8E00008F4F00008D4D00004C8C0000AD
:1007E00044840000854500008747000046860000DD
:1007F00082420000438300004181000080400000ED
:100800000000000040030000A0010000CF00000035
:10081000670000003300000019000000771400009A
:100820006D5D00001E5B00007B1500007F5F000017
:10083000083F00007A6800007C6B00002B7B000002
:100840003E100000540000006200000038780000F4
:100850002F000000285B00006A700000000000000C
:10086000005E0000000000000104000010400000D5
:100870002002000008630000761F00000000000056
:100880000000000000000000000000000000000068
:100890000000000000000000000000000000000058
:1008A0000000000000000000000000000000000048
:1008B0000000000000000000000000000000000038
:1008C0000000000000000000000000000000000028
:1008D0000000000000000000000000000000000018
:1008E00000000000000500000301000006040000F5
:1008F00002000000000300000602000005010000E5
:1009000004000000000500000301000006040000D0
:1009100002000000000300000602000005010000C4
:100920000400000032300000302D0000535700005A
:10093000534300002D320000303000002D410000F4
:10094000004D000061740000746500007320000019
:1009500047650000726800006172000064000000DA
:100960000005000003040000010600000200000072
:100970000002000006010000040300000500000062
:10098000A08C0000671F000000000000484300002A
:1009900000000000484300000A00FA00004F780001
:1009A0001107980022079800330798004407980021
:1009B000804622001E4878009E0090005123890046
:1009C000AE009000612389000000200001F82300A0
:1009D00080238900912389003C72020000000000FE
:1009E0003E009000E30F500022003200E30F500061
:1009F00007003C00E10F500012003200E10F5000F0
:100A000016003C000000E000080032003100370012
:100A1000E50F500023003200E50F50001B003500A9
:100A2000E60F5000250032002A0037000040EB009E
:100A3000E00007008040EB0000CDB3009900070004
:100A40002400370010C0B300DA0007008040EB003C
:100A500010CDB300930007001E00370020C0B30084
:100A6000D40007008040EB0020CDB3008D000700CC
:100A70001800370030C0B300CE0007008040EB0004
:100A800030CDB300870007001200370040C0B3002C
:100A9000C80007008040EB0040CDB3008100070094
:100AA0000C00370050C0B300C20007008040EB00CC
:100AB00050CDB3007B0007000600370060C0B300D4
:100AC000BC0007008040EB0060CDB300750007005C
:100AD000000000000080FA00000006000C00FA0090
:100AE00040079800510798000000EB00000F7800C5
:100AF0000000EB00100798000000EB0020079800B2
:100B00000000EB0030079800E60047006400470053
:100B100019000700000F78002E009000A023890024
:100B20003E009000B02389001E0078000000E00025
:100B30000E003A001E0090000000E00009003A009C
:100B40002E009000DD0007004E0190000089BE00DD
:100B50003E009000730007005E0190000089BE0017
:100B60000200370020002000000F78001E007800EF
:100B70000080FA00000006000A00FA003007980022
:100B8000410798000000EB00000F78005C72020043
:100B90000000000080462200104078000080FB002A
:100BA00000004000004078000004A0000A7302002A
:100BB00000000000000F78001E0078000000E00038
:100BC0001B003A000E80E8006C7402000000000078
:100BD0001E0F700030740200000000000E80E8005C
:100BE0000000E8006C740200000000001E0F70009E
:100BF00030740200000000000E80E8000080E80071
:100C00006C740200000000001E0F700030740200BF
:100C1000000000000E80E800630040006C740200D9
:100C2000000000001E0F7000F273020000000000C0
:100C3000D0720200000000002E4090008080FB0077
:100C40003E009000010878003E00900010007800FF
:100C5000C800DD003E4090000080FB008100700075
:100C60003E009000010878004E4090008080FB001C
:100C70004E009000010878004E00900010007800AF
:100C8000C800DD005E4090000080FB008100700025
:100C90004E009000010878001E0078000080FA00E5
:100CA000000006000400FA00204798003147980031
:100CB0005C720200000000008046220010407800B4
:100CC000004040000A73020000000000000F78009E
:100CD0001E0078000000E00004003A002E40900062
:100CE0000A73020000000000000F78001E00780068
:100CF0000000E00004003A003E4090000A73020049
:100D000000000000000F7800D07202000000000018
:100D10002E409000270007001E0078000080FA0097
:100D2000000006000600FA0020079800AE009000C0
:100D300000F02F00008F60001E0078004800DE00E9
:100D4000000F78009E007800400620008088B900DF
:100D5000000F7800AE009000F00F200000806000CF
:100D6000100798009E009000400620008088B9007F
:100D700080007800F00F20000001780011000900C9
:100D80008280D800100798001E0090001E004000CE
:100D90008000EB00F81702000000000002002000B5
:100DA000832C2400D8160200000000000080FA0006
:100DB000000006000200FA00004F78001E80FB00D1
:100DC00067006000E30F500021003200E30F500085
:100DD00007003C00E10F500013003200E10F50000B
:100DE00016003C000000E0000A003200310037002D
:100DF000E50F500020003200E50F500019003500CB
:100E0000E60F500021003200E70F500024003200AE
:100E100028003700D0CC2C00C1DC230080238900BF
:100E200091238900230037000000200001E82300FF
:100E300080238900912389001E00370000002000D4
:100E400001F02300802389009123890019003700D5
:100E50000000200001F823008023890091238900ED
:100E600014003700000020000102240080238900C4
:100E7000912389000F00370000002000010A2400A0
:100E800080238900912389000A0037000000200098
:100E90000112240080238900912389000500370076
:100EA0000000200001122400802389009123890082
:100EB000000000000080FA00000006000800FA00B0
:100EC000889FBE00300798006000B80010079800A7
:100ED00021079800BE009000010F7800E046220034
:100EE000104078000004E000010032001E0FEA000C
:100EF0001E007800CF80DE00F21702000000000024
:100F00000004BE00502381008000EB00F8170200AF
:100F1000000000000001BE000800BE00D81602005C
:100F2000000000001007980021079800D2CC2C0088
:100F3000833724001E009000AE009000A21802002B
:100F4000000000000002BE00802381009123810088
:100F50000001BE000400BE00A21802000000000054
:100F600010079800210798001E009000AE00900026
:100F70004F04BE000080FA00000006000400FA00E2
:100F8000000F780011079800A12381001E0078004F
:100F900001087800B12381001E009000010878004C
:100FA0000080FA00000006000200FA00004F7800FE
:100FB000E04622001E4878000080FA00000006008B
:100FC0000000FA00100020000080FA000000060077
:100FD0000000FA0001428000F0FF2800008060005D
:100FE00000C0A000004288004988A80049A8A800C5
:100FF00049C8A8000080FA0000000600FFFFFF00BB
:10100000FFFFFF00FFFFFF00FFFFFF00FFFFFF00EC
:10101000FFFFFF00FFFFFF00FFFFFF00FFFFFF00DC
:10102000FFFFFF00FFFFFF00FFFFFF00FFFFFF00CC
:10103000FFFFFF00FFFFFF00FFFFFF00FFFFFF00BC
:102000006F4E22000EFF27000E0188000000000026
:10201000000020000000E00002003200000120006B
:102020002002880014000700A40207000000E0005E
:1020300003003A00A05A28000100200002003700E7
:102040000000200001002000810F7000010032001C
:102050000F000700000020000000E0000200320036
:102060000000020000000000B66E02000000000048
:102070000040DA000000FE00C02C20000000E0005C
:1020800002003200002020009001880000000600BD
:10209000A1028800800478000000EB001F003700D8
:1020A000E284440054A0B4009905BA00E2844400DC
:1020B00054A0B4009906BA00E284440054A0B400CD
:1020C0000006EB00476FDE00FD07B200AE0188009E
:1020D000636CE10003003A000AD801000000EB0045
:1020E0000E003700606CE10008003A00004DEB0084
:1020F0000A05E800020039003420EC000AF0A000D4
:102100008B05E900F9FF3E00040037006168E1003B
:10211000010032000086EB000B00070019C7BA006F
:102120000E04E0001905BA0003003A000A00E000BE
:10213000DBFF3A0000000600FE07B200AE02880096
:102140008A047800F5FF37000CD0A300E20F4D00A1
:102150001C00390089027800354DBA000A05E800F4
:10216000020039003420EC000AF0A0008B05E900E1
:102170000F003200254DBA000A05E80002003900C0
:102180003420EC000AF0A0008B05E90008003200C2
:102190000C00E0000600320015CDBA000A05E80088
:1021A000020039003420EC000AF0A0008B05E900A1
:1021B0008984E80054A0B4000B00E000E2FF3A007C
:1021C000000006009902BA00055D78008B05E90061
:1021D000F7FF3200C82ADE00055D78008B05E900B4
:1021E000F3FF32000C00E000F1FF320019DDBA000D
:1021F000EEFF3700966E0400000000003600F80085
:10220000809FBE00829FBE00849FBE00869FBE004E
:102210000000FA000228A9004110800000082000F8
:10222000008060000000E0000A00320008E2A9001F
:102230000000EB00601A8900901A810020009000D5
:102240008000EB00010878000000EB00901A890084
:1022500023013700601A81008000EB00B2002000EB
:1022600003002000820F5000838F580011013E00B0
:10227000000601000B0037003A00370079003700F4
:10228000A400370007013700D7003700E900370006
:1022900004013700EB003700060137003500370036
:1022A000520037004034220020009000620060009D
:1022B0000000E00009013A004034220010009000C4
:1022C000901A89004034220010009000904078005D
:1022D000E0342200014878004034220010009000D1
:1022E00010009000801A89004034220010009000F5
:1022F000E6004000403422001100980040342200E3
:102300009000900040342200808F500003003A007B
:1023100040342200E13322001100980040342200B2
:10232000A00090000100A10021009800403422008C
:10233000900090004034220010007800808F500000
:1023400004003A0040342200A00090000110A000D8
:10235000210098000602A80020002000601A8900D1
:10236000DF0037000622A80020002000601A890044
:10237000DB00370041108000000028000080600072
:102380000000E0000900320040342200604090006C
:102390008040E80040342200614098004000200066
:1023A0004482020000000000CD003700001B8100C5
:1023B0008000D100F00F2000008060001010880025
:1023C000001B810061006000004078000004E00014
:1023D00003003200B0002000601A8900C0003700FE
:1023E00030002000601A8900BD00370041108000D5
:1023F00000002800008060000000E00009003200BA
:1024000040342200604090008040E80040342200C8
:10241000614098004000200044820200000000005B
:10242000AF0037000622A800001B81004800DE0034
:10243000E6006000000F200001007000001B890012
:10244000001B81000000A000001B89002036220034
:1024500011C0B3000148780020002000601A8900F4
:102460009F0037002036220010407800E14F5000D6
:102470000B003200801A810010007800001B8900D8
:10248000801A810020009000201B8900801A8100A2
:10249000A040900060362200014878000300370019
:1024A000203622008040EB0001487800011B8100AB
:1024B000F00F2000808F500009003600001B8100C3
:1024C0004800DE00E6006000000F20000100700000
:1024D00010108800A0002000601A890080003700DA
:1024E000001B810010108800001B8100610060004B
:1024F000004078000004E00003003200500020009B
:10250000601A89007600370030002000601A8900C8
:102510007300370041108000000028000080600038
:102520000000E0000A0032004034220060409000C9
:102530008040E800403422006140980009E2A90090
:1025400050002000448202000000000064003700B8
:1025500060362200104078008080FB008100E90096
:10256000CF08DE00814078000041E900603622009B
:10257000024878000104E00014003200801A810053
:1025800066004000801A8900E03422001040780084
:102590008040E900E034220001487800E034220065
:1025A000104078000004E00004003A002000200001
:1025B0004482020000000000490037000622A80003
:1025C00020002000601A890045003700201B810090
:1025D000904078008180FB00111088000000E80026
:1025E000201B89003E0037004110800000002800B9
:1025F000008060000000E0000A0032004034220049
:10260000604090008040E800403422006140980023
:1026100040002000448202000000000009E2A900FE
:102620002F0037000662A80080002000601A890091
:102630002B00370080002000601A89000662A80085
:1026400027003700201B81000110800081407800A6
:10265000014878000000E800201B89006036220055
:10266000104078008040E900603622000148780080
:1026700060362200104078000004E00004003200C0
:1026800006A2A90060002000601A8900030037003C
:1026900006A2A8001C820200000000000682A8001A
:1026A0000F003700200020004482020000000000DC
:1026B0000B00370040342200604090008040E8006A
:1026C00040342200614098006000200044820200F3
:1026D00000000000000000000100370000000000C2
:1026E0000080FA004F03BE004F02BE004F01BE0043
:1026F0004F00BE003600F900004006003600F8002A
:10270000809FBE00829FBE00849FBE00869FBE0049
:102710000000FA0010408000680060000000E00047
:102720000300320016630200000000000268A900E6
:102730000080FA004F03BE004F02BE004F01BE00F2
:102740004F00BE003600F900004006003600F800D9
:10275000809FBE00829FBE00849FBE00869FBE00F9
:102760000000FA00F892020000000000904C2200E5
:10277000104078008040E800904C2200014878002A
:10278000804C220011C0B300014878000068A90005
:102790000080FA004F03BE004F02BE004F01BE0092
:1027A0004F00BE003600F900004006003600F80079
:1027B000809FBE00829FBE00849FBE00869FBE0099
:1027C0000000FA007E660200000000000108A90077
:1027D0000080FA004F03BE004F02BE004F01BE0052
:1027E0004F00BE003600F900004006003600F80039
:1027F000809FBE00829FBE00849FBE00869FBE0059
:102800000000FA009A93020000000000F04C220041
:10281000104078008040E800F04C22000148780029
:10282000E04C220011C0B300014878000368A90001
:102830000080FA004F03BE004F02BE004F01BE00F1
:102840004F00BE003600F900004006003600F800D8
:10285000C028A9000000EB00449602000000000020
:102860003600F8004C96020000000000C048A900A5
:102870001000200044960200000000003600F8001E
:10288000C068A9002000200044960200000000005B
:102890003600F800C088A9003000200044960200ED
:1028A000000000003600F800C0A8A9004000200089
:1028B00044960200000000003600F800C608A90097
:1028C0007000200044960200000000003600F8006E
:1028D0002146800000022000008060000000E0002F
:1028E00004003200C4A8A900900020004496020011
:1028F0000000000020468000700060000000E00042
:1029000004003200C488A900A00020004496020000
:1029100000000000FFFF37003600F800809FBE0077
:10292000829FBE00849FBE00869FBE000200FA0008
:1029300030118000004F780090018100700060002D
:102940000000E00052003A0060858000E10F500076
:102950001D003200E10F500003003900E20F50006B
:102960002C0032003F003700200021001E48780074
:10297000608580000000E80060858800E004210098
:102980008040EB00014878000000EB006082880086
:10299000E0042100104078000081FB0020002100AD
:1029A000904078006000210000004100014878005C
:1029B000E0042100104078008040E800E00421009D
:1029C00001487800270037001E80FB002080880027
:1029D000E0042100104078000081FB00208080008E
:1029E000804078006000210000004100014878002C
:1029F000E0042100104078008040E800E00421005D
:102A000001487800608580000000E800608588004B
:102A100014003700E00421009040780050C4B30057
:102A200080CF500003003600E004210051C4B30001
:102A300001487800E0042100104078008080FB000D
:102A400060002100008040001E487800E004210062
:102A5000104078008040E800E00421000148780040
:102A600000000000701F810066930200000000005B
:102A70000000EB008093020000000000A49302001D
:102A800000000000A00A21008040EB00014878000F
:102A90002222A9000168A9000080FA004F03BE00AD
:102AA0004F02BE004F01BE004F00BE003600F900CD
:102AB000004006000040DA000000FE0000000500B3
:102AC0005400F80042398800503988006139880084
:102AD0000500FC005105200071398800A10A200082
:102AE0007139880029E7A8000000000000000000FC
:102AF0005400F900000006000400A10001003700A6
:102B00000400A0005400F8005039880061398800A2
:102B1000A00F2000A00288000000EB00210024008C
:102B200041398800F10F20003208BB000400A700E3
:102B3000B20078000198BB002CA7EC008301E900EB
:102B4000F9FF3A00680151000400A7006801510034
:102B5000680050001208BB00DDFF3700F30F2000B3
:102B60005400F8005039880061398800A1028800BB
:102B700011002400413988000208BB000388BB0013
:102B8000D3FF37005400F80040398800D0FF3700E9
:102B9000F30F2000F50F20005400F8005039880092
:102BA00061398800A00F2000A00288000000EB001F
:102BB0000208BB000398BB000408BB000598BB00DB
:102BC0001100240041398800C1FF37005400F8008B
:102BD000A102880080027800620040003549BA00F6
:102BE000E08048003204E0000410A700100032002A
:102BF0008301E9000E0032002549BA003204E000EA
:102C00000410A7000A0032008301E9000800320026
:102C10000408A300EEFF320015C9BA003204E00038
:102C20000410A700020032008301E900E8FF3A0027
:102C30005400F9000000060003F0A200889FBE00C7
:102C40008A9FBE008C1F7800260107002D013300EB
:102C50006450E1004F0032006420E1005200320075
:102C600003826C0007003B000905D0000306D0007A
:102C7000820F54000C065D00020039000200320091
:102C800089017800030678008582550004003D0024
:102C90000003FD008103FD008502EA008B854200F0
:102CA000840F720002003B0060001000E0801800FA
:102CB0006011B8000005EB007A28E1000A00390035
:102CC00006007800C75DDD00F707B2008780750059
:102CD0002D003700828171000A01780061056000D3
:102CE0008180D1000080D3008502E900F9FF3B001C
:102CF000060440008784480002003B006004140082
:102D0000E0841C000988A300070032008A8171005A
:102D100082817100610164008904D1000884D300BC
:102D20008B05E800170037000978A30013003A006C
:102D30000B00E000130034008B05E9000804440098
:102D400089844C000A4474000978A3000D003A00FD
:102D50000B00E000070034008B05E9000804440084
:102D600089844C0001003A000B0020000978A30080
:102D7000F7FF32000001EB00020037008281710092
:102D80000A0178009C0007000CF0A70001F0A000E9
:102D9000E50037006420E10002003A00838F6C00F8
:102DA000E50033000801BE000200BE00DE0037006F
:102DB000889FBE008A9FBE008C1F7800C900070054
:102DC000D000330003866C006450E1002E00320016
:102DD0006420E100330032006150E1002F00320036
:102DE0006120E1003100320085855500EB07B0001D
:102DF00009002000080420000500370008044400F2
:102E000089844C000A0031000603430087834B008D
:102E10000001530081815B00F8FF33000203BE0014
:102E20000800A0000804440089844C00F6FF390023
:102E3000C639DD0083017300010032001300200059
:102E40008904D1000884D3000998A300050032004A
:102E50000800A7000300A0008904D1000884D30063
:102E60008B05E8008904D1000884D3000001EB0041
:102E70000281D2006000070001F0A1000CF0A70061
:102E800001F0A000A80037006420E100AA00320091
:102E90000801BE000200BE00F7FF37006120E1001C
:102EA000A50032006000B800F3FF370000002000EA
:102EB00001F82700F0FF3700839F68000100E00061
:102EC00002003D0060001000E08018000300E000F8
:102ED00002003D0060011100E0811900B00107000F
:102EE0004F00E00002003B0060001000E08018008E
:102EF000000006000001BE00650007000470A70086
:102F000003F0A1006509B100160032000D00350084
:102F10006828E10006003500F0FF2F00F1FF2700D0
:102F20000300E00013003B00010028000000050042
:102F300000004000818048008502E900FCFF3A0063
:102F400008003700F88F420002003C008000EB00D0
:102F5000000005008100D1000080D3008502E80058
:102F6000FCFF3A000300E00002003B00600010009C
:102F7000E0801800000006000001BE0044000700C9
:102F80000470A70003F0A10003F8A30013003A00A7
:102F90006509B10010003200090035006928E10020
:102FA000020035000100280000000500000040007C
:102FB000818048008502E900FCFF3A00000006001D
:102FC000F88F4200050035008100D1000080D30059
:102FD0008502E800FCFF3A00000006008000EB00DC
:102FE000000005004F89DE00820178001D033700D4
:102FF0006011B8002B03370081002000618055006C
:103000000B003D000B00200061FE2F000100E100DD
:103010001D00340082817100610164008904D100C7
:103020000884D3000000E800FAFF3A007100200095
:1030300061006400030070000200600009003200BB
:1030400061044400E0844C000988A50005003200BA
:103050008B05E8006808E10002003A008904D1000D
:103060000884D300F20F20000258E10005003D0063
:10307000C75DDD00F907B20089807500080078009F
:10308000000006000BF827008B0078000000050008
:10309000C70ADE00F107B200F50FB20008003200E7
:1030A000E1CF4200020032000170A00024000500C0
:1030B000810F700001003200040805004400050083
:1030C000810F700002003A00140005008502E9003B
:1030D0000000400081C04800FCFF3B000170A000E0
:1030E000240005000004BE00E9FF07000003BE0045
:1030F0000405BE000200BE00E5FF0700844F750016
:10310000000006000200BE006450E1000500360029
:103110006420E100020036000968A30001003A00C3
:103120000800BE000160A0004F0678004F05BE00F9
:103130004F04BE0000000600F0FF2F00F1FF270043
:10314000F9FF3700889FBE008A9FBE008C1F780061
:10315000E4FF0700EBFF330003866C006450E100DE
:10316000240032006420E100270032006150E100B9
:10317000220032006120E100210032008B854200F4
:10318000EB07B1000134B800003AB800080442006F
:1031900089844A00013AB8000030B80088804000B5
:1031A00009014A000400330000004000818048000B
:1031B000020149008B05E900C909DD0083017000A7
:1031C0000100320013002000C814DE004814DD00A6
:1031D0004709DE001200B200C808DE000884700053
:1031E00085FF070001F0A1000CF0A70001F0A0008E
:1031F000CDFF37006120E100CFFF32000801BE00A3
:103200000200BE00F7FF37006150E100FCFF3A000A
:10321000C9FF37000C00FA00889FBE008A9FBE00DD
:103220008C9FBE00AFFF07000206BE008405780039
:103230000200BE00020020005F02070005003A0005
:103240008B02B300120020005B02070001003A006D
:10325000F8856D000C01BE00C60007000800BE0026
:103260009B0032000B08A3009E003A000DF0A7005F
:103270000BE0A00009F0A7000BF0A00009F0A100EE
:103280000801BE00BB0007000BF0A600950032004D
:1032900001003C000BD0A0008ACF7500B2003300C3
:1032A0006000B8006250E10099003900A1003E00C2
:1032B0000B28A300A2003A000BF8A300060032007E
:1032C0000B58A300A70032000801BE00A9000700A8
:1032D0000800BE00940032000800BE00C7010700CD
:1032E0000004BE00050578000BF0A7000B30A60017
:1032F0000BF0A1005B079800324F200053F323002E
:103300005402070005003D000800BE001200200026
:10331000930207000004BE000A05E9004A0798006E
:103320006150B9002FFF0700008FBE000C01BE00E6
:1033300084FF0700EFFE0700300798000100E0005F
:1033400002003D0060001000E0801800F2FF27003E
:10335000820F5000E08F580064003E000C00BE0059
:10336000E4FE070020079800F2072000820F5000BB
:10337000E08F580005003C0012F82F00F3FF2F00EB
:10338000820F5000838F580009003D000A00E000C2
:103390000300320001003C000201EA00020578004F
:1033A0006000B800200798003A079800190037001D
:1033B0003E0090006100B9000AFF0700809FBE0038
:1033C0000C00BE004109DD004811DE007208B100AA
:1033D000F90107000005BE001E01BE0059FF0700ED
:1033E0004F01BE0014FE0700809FBE000C00BE000F
:1033F0000A01BE0010FE07001E01BE0051FF0700BB
:103400004F01BE000DFE07008221270013F32300A9
:103410004CFF07000005BE002E0090006100B900BF
:10342000F0FE070001F0A2000C01BE0003FE070041
:103430000006BE000800BE006B0207000C01BE00C3
:1034400040FF07000A01BE00FCFD0700809FBE0090
:103450004A0007002E0590000AF0A7000A05EA00BE
:10346000050037000800BE000801BE0035FF070058
:103470000004BE000C00BE000801BE000A00A70048
:1034800030FF07000006BE000A05D100F5FF3A0034
:103490005E01900002E0A600030037000001BE00BC
:1034A0003600070042FE07000004BE004F00BE00C9
:1034B0005F0107000801BE0022FF07003E019000E7
:1034C00027020700DE0590000BF0A70001F0A20024
:1034D0004F06BE004F05BE004F04BE000080FA003C
:1034E0000000060025000700F9FF3700270007004D
:1034F0006000B8000BD0A7000BC0A0000BE0A70035
:103500000BC0A2000BC0A70001F82700F0FF370096
:103510000DF8A300020032001E000700190007008A
:103520000BF8A300EAFF32000B30A70001F0A20065
:10353000E7FF37000DF8A300F9FF3A00F7FF370067
:103540000801BE000B000700E6FF320001003C004E
:103550000DF0A2006000B8000DF0A7000900070000
:10356000DBFF37000B000700F1FF2700F0FF2F0003
:10357000D7FF370001000700B601370001F823002C
:103580000000050001F827000000050020022000CF
:1035900001003700100220000080880000000600B3
:1035A0006022B800060220000000D0008180D20016
:1035B0000482D2008582D2000000A00002025200E4
:1035C00083825A00030031000202420083824A00D3
:1035D0000000A1000603E900F3FF3A000000060026
:1035E000EFFF07000400BE0000000600889FBE0039
:1035F0008A9FBE0030044200B0844A0030054B0070
:1036000090854B006000B1000898BE000A90BE0093
:103610000440E10005C8E10006D0E10007D8E10060
:1036200002003100680040001008E8004F05BE00AD
:103630004F04BE0000000600889FBE008A9FBE00A7
:10364000100478009004900020059000B0059000D0
:103650000418540005985C0006185D0007985D008A
:10366000110020000440E10005C8E10006D0E1009F
:1036700007D8E100010039008000EB00108810003D
:103680004F05BE004F04BE00000006001200FA0005
:10369000889FBE008A9FBE008C9FBE00E0B79F003F
:1036A000F1B79F0082BF9F0093BF9F000605BE0039
:1036B0000404BE000000EB00D0B79F00C0B79F001D
:1036C000B0B79F00A0B79F0090B79F00000678009A
:1036D0005FB19700CFB09700820141003FB09700E3
:1036E0000200E00004003D00370007007E80570024
:1036F000BEFF070003003700330007007E8057003D
:10370000CDFF0700DFB697000D00E0000C0035008C
:103710006FB29700FFB297000FBB97009FBB970057
:1037200010002000010020006011B80000027200AB
:103730008182720002037300838373001B00070001
:103740000C06E80001042000810F5600E0FF3A005B
:103750000D00E00004003D000802BE000A03BE00A8
:103760007E805700A1FF07005FA897000000E000DF
:1037700005003A001FB29700AFB297003FB3970021
:10378000CFB39700090007006FB09700FFB0970014
:103790000FB997009FB997004F06BE004F05BE00B6
:1037A0004F04BE000080FA00000006000100070080
:1037B00000000600A4B79F00B5B79F00C6B79F00E2
:1037C000D7B79F00000006004F09DE00828171001C
:1037D000B3B79F004F01DE008180400082807000FF
:1037E000A1B79F008FB097004F09DE000000400096
:1037F0000200700090B79F007FA897004F01DE0085
:10380000818040008280700081B79F000D0007001A
:103810004F3ADE000000400004007000F0AF9F004F
:10382000080007000402420085824A0006034B009C
:1038300087834B00DFFF07000802BE000A03BE00BB
:10384000000006002FB29700BFB297004FB3970059
:10385000DFB3970000000600881F780018002000E2
:10386000881F780089FF07008F87E9004F047800E0
:1038700000000600801FEB0084FF07008F87E9002F
:1038800000000600889FBE008A9FBE00E00F500027
:10389000E08F5800E00F5900E08F59000C003D0008
:1038A0006044B8006055B8000000540081805C009E
:1038B00002015D0083815D001800200015000700F3
:1038C00008003D00180007000004EB000500370069
:1038D0000004EB000F00070002003D00120007008B
:1038E00018002000DCFF07000800E000060032009E
:1038F0006022B8006033B8000000520081805A0096
:1039000002015B0083815B004F05BE004F04BE00D7
:1039100000000600E00F5200E08F5A00E00F5B004D
:10392000E08F5B00000006006044B8006055B800FE
:103930000402540085825C0006035D0087835D00FD
:1039400000000600889FBE008A9FBE008C1F780082
:10395000E00F5000E08F5800E00F5900E08F590051
:103960000D003D006044B8006055B80000005400F0
:1039700081805C0002015D0083815D001C002000ED
:103980000820E10009A8E1000AB0E1000BB8E1005D
:103990000D003D00080037000006EB00E00F52006C
:1039A000E08F5A00E00F5B00E08F5B0006003D00F7
:1039B0006044B8006055B8000402540085825C0081
:1039C00006035D0087835D00AAFF07000C00E0008E
:1039D000060032006022B8006033B80000005200D8
:1039E00081805A0002015B0083815B004F067800F2
:1039F0004F05BE004F04BE00000006000003BE00DD
:103A0000A3FD07006220E100020032000600BE00B4
:103A100005000500E507B100F107B20004F023003E
:103A20008480700007F0A70001F0A00024000500CA
:103A3000889FBE008A9FBE008C9FBE000004BE000F
:103A400093FD07000800BE006420E10048003E002E
:103A50005500320072212700132B24007F0007003D
:103A600047003C000800BE00C2EC2800E32C2C00FC
:103A700078000700470035000800BE0001F0A100F3
:103A800002002000033823007200070043003500C5
:103A90000800BE00B2A32A0083FB2300A9FD070093
:103AA0000200200003F0230001F0A70003F0A000B3
:103AB00062FC07000FFD07000005BE0049FD07007E
:103AC00001F0A2000006BE000200280013F323004C
:103AD0009CFD07000801BE0058FC0700809FBE0047
:103AE0000C00BE0032082800E3952B0095FD07006E
:103AF0004F01BE0051FC07000006BE000001BE00E1
:103B000090FD0700809FBE004241250083B823003E
:103B10008CFD07000200200003E8230047FC07009B
:103B20000C01BE0087FD07000006BE004F00BE006E
:103B3000F2F92B00C3D4230082FD0700020020000D
:103B400003F023003DFC07000C01BE003AFC070017
:103B50000001BE000C00BE0095FC07000200200022
:103B600003F0230035FC0700610145007C000700DD
:103B70004F06BE004F05BE004F04BE000000060009
:103B800001F82700000020002202200002808800A7
:103B9000F7FF37006000B800FBFF370001F8230093
:103BA00000002000F2FF370009F8A300F0FF320008
:103BB0006000B800EEFF3700889FBE008A9FBE00FD
:103BC0000003BE0032FD07008505780082815200A7
:103BD000020020006220E10004003A00F307B10077
:103BE000040035007718E100040035000600BE002F
:103BF000140037006000B8000F003700F50F2000F8
:103C0000FAFF2F008502D1000A85D3008301E90065
:103C1000FCFF3B008184620000046500890F740092
:103C2000F2FF32008582EA000A85EA0081846200A0
:103C300000046500F0FC070007F0A70001F0A000F9
:103C40000081EB000200E0004F05BE004F04BE0003
:103C50000000060014002000BA003700F4FF2F0017
:103C6000B8003700881F7800030478000300E000E4
:103C700007003D0060001000E0801800600119009E
:103C8000E081190002003B0001F02D000300370025
:103C90000400070008F0A70001F0A0004F0478001E
:103CA00000000600889FBE008A9FBE000082700050
:103CB0000402710004827100260032000004BE007C
:103CC0000200BE006011B8006B09200095022000C0
:103CD0000182CF000A0039000541B1000082CF0007
:103CE000070039000541B1000982CF000400390006
:103CF0000541B1000882CF00010039000541B10043
:103D000005425200120032000A003B00828171001D
:103D1000610164008100D1000080D3008984D30058
:103D20000884D3008B05E8000442E800F7FF3A005E
:103D3000070037000804440089844C000000480054
:103D4000818048008B05E9000442E900F9FF3A0050
:103D5000A9FC07004F05BE004F04BE00000006008E
:103D60000003BE00CAFC07006220E100020032002E
:103D70000600BE000000060085024100E30F20009F
:103D80000328E10005003C00A3FE2F000328E1000A
:103D900007003D000500200001003700F50F20005E
:103DA00020022000008088006000B8000800370072
:103DB000130020008381520005003D008100D100E6
:103DC0000080D3008301E800FCFF3A0005002000DA
:103DD000C72ADD00F107B2008580700007F0A70058
:103DE00001F0A00000000600889FBE008A9FBE0070
:103DF0008C9FBE0001FF0700850478000005BE000F
:103E00006420E10049003E006220E100030032002E
:103E1000090035000BF8A300440032000BF8A300A2
:103E2000080032001002200000808800F0FF2F0000
:103E3000F1FF27003D00370001F82F0000002000AF
:103E40003A0037003D0007007BFB07000006BE007C
:103E50000A00BE00324F200053F323007FFF07000B
:103E6000060034000C00BE003400070072FB07009F
:103E70000006BE000A00BE00020037008904E90007
:103E80000C00BE002D000700AEFC07002B00070051
:103E90006AFB07000001BE000C00BE00C4FB070067
:103EA0000005BE000001BE00A6FC07000006BE0023
:103EB000A2F32300430D2C0060FB0700809FBE008F
:103EC0000C00BE00D2E32700D3F02B009DFC0700BE
:103ED0004F01BE00B6FB07000006BE000A01BE008F
:103EE00098FC07000A01BE0054FB07000006BE0054
:103EF0006148B9003BFC07000005BE0032082800FD
:103F0000E3952B008FFC07000C01BE004BFB070064
:103F10000006BE000A00BE000200280013F32300C2
:103F200088FC07000C01BE0044FB07004F06BE00E2
:103F30004F05BE004F04BE000000060003F0230042
:103F400002000500889FBE008A9FBE00841F780083
:103F500064FC07004F00780011003300F0FF2F00D1
:103F6000838F6C0006003B00040565000A00A70073
:103F70000800370009F0A6001000200008003700F4
:103F8000820F5400838F5C00030039001000200072
:103F900001003E000000200009F0A7000000EA0038
:103FA0004F05BE004F04BE000000E0000000060008
:103FB0008001780002003700B15978000201E90061
:103FC0000200E000FCFF3A0000000600EE87470018
:103FD000889FBE008A9FBE008C9FBE008E1F780007
:103FE000F0B79F0001067800820578000004780091
:103FF000080578000A047800B84678000D00FB0038
:104000008E0007000000E000F9FF3A00D0C2B300C4
:1040100080CF56000300320000C0E90080CF560078
:1040200002003A000A05E8000100370080467800E7
:104030000B00E00005003500E18F55000300320061
:1040400040022000808F5500060034006044B80014
:104050000C00E000720032007FB09700000E780084
:10406000480037000B00E0000E003200F08F5500D2
:104070001A003A0000C3B3009A4F100017003A002C
:104080001A40900081C7B300814F500003003200F6
:1040900081C5B300814F500010003A000A85E80046
:1040A0000E003700AB00200000C3B3009A4F100091
:1040B0000A003A001A40900081C7B300814F5000B7
:1040C000040032008B00200081C5B300814F5000F6
:1040D00002003A000A85E8000B0120000A0078007F
:1040E000000278000400780001C3B300B0CF1000D4
:1040F000FBFF3200040778006044B800B4B79F00AB
:104100000D003700412F220081405000C1EF9F0079
:104110006159B9000800BE00610007004FEA97002E
:104120000401FB00CF91DE00C8B79F00D9B79F0004
:1041300002044000838448008E0278003E00FB00A9
:1041400085BF9F00450007000B01780080007800C4
:10415000402F2200480007008FBA97000000E000BF
:10416000E8FF3A003FB29700850F550007003A007C
:104170006044B8000C00E00029003200FFB2970054
:10418000050E78006044B800250037000482520014
:10419000903122000B0040001000FB000002520092
:1041A0001700330011003A004FE997000200FB00AE
:1041B000CF80DE000000540081805C00800F54003E
:1041C000818F5C00090039006159B90085BF9F00EB
:1041D000F3FC07008FBA97004FB19700DFB197004B
:1041E000820F5000838F580005003200200220000B
:1041F000008088000084EB008084EB00050037001D
:10420000D0C2B30080CF560002003A006004140010
:10421000E0841C000C00E00001003200050E780074
:104220000800BE004F0778004F06BE004F05BE00D5
:104230004F04BE00EF00B100000006006900E1007D
:10424000040035006D00E100030034000002B100FD
:104250000100320000000500100005008000780019
:104260001104B100030035009101B10001003C00D0
:104270000050A0000000060003003700B0CF10007F
:10428000050032000201E900800178000200E00030
:10429000FAFF3A0000000500030078000000060065
:1042A000020AB900001BB9000200B80081004200F8
:1042B00081004300000006000000FA0000A62E0066
:1042C000701F8900300A21008040EB00014878000F
:1042D0000080FA00000006000C00FA00881F780039
:1042E0000040EB00004F78000040EB0010479800C2
:1042F000000B210001C4B30001487800100B21001D
:104300008040EB00014878002014210001C4B30074
:10431000014878003014210041C6B30001487800FC
:10432000401D2100F1C1B30001487800501D21005B
:1043300081CCB300014878008078210081C1B300AE
:1043400001487800907821008040EB000148780017
:10435000802F210001C4B30001487800902F210074
:104360008040EB0001487800A038210001C4B30070
:1043700001487800B03821008040EB000148780007
:10438000E04A210061C4B30001487800F04A2100EE
:104390008040EB0001487800C041210001C1B3001A
:1043A00001487800D0412100A1C4B3000148780041
:1043B0000054210081C1B30001487800105421004D
:1043C0008040EB0001487800205D210081C1B300EE
:1043D00001487800305D21008040EB000148780002
:1043E0004066210011C2B3000148780050662100E8
:1043F0008040EB0001487800606F210001C4B300E9
:1044000001487800706F210021C4B3000148780092
:10441000400A20002653020000000000D0C088009F
:104420000000EB00100798000E0037001E84FB0010
:104430001E0090002653020000000000800078005B
:104440000800E80000014000E04A210000004100AF
:10445000010878001E4FE8001E0090000000E800F0
:10446000100798009E00900080022000808F50006E
:10447000EEFF360090042000100798000E00370071
:104480001E84FB001E009000265302000000000066
:10449000800078000800E80000014000E04A2100A8
:1044A00000004100010878001E4FE8001E00900047
:1044B0000000E800100798009E009000E007200030
:1044C000808F5000EEFF3600F0C3B300004F78003D
:1044D000F0042000100798000E0037001E84FB0037
:1044E0001E009000265302000000000080007800AB
:1044F0000800E80000014000E04A210000004100FF
:10450000010878001E4FE8001E0090000000E8003F
:10451000100798009E00900010052000808F50002A
:10452000EEFF3600000320002653020000000000CA
:104530008040780000CDB30080C04000B00A210068
:10454000014878000040EB00004F7800800A20000E
:10455000100798000E0037001E84FB001E0090001C
:104560002653020000000000800078000800E800E8
:1045700000014000802F2100000041000108780068
:104580001E4FE8001E0090000000E8001007980091
:104590009E009000700E2000808F5000EEFF3600CD
:1045A0000000EB00E0AE88006600470090080700BE
:1045B0003E009000208A88004E009000308A8800DB
:1045C0005E009000408A8800F0062000508A880033
:1045D00030018100608A88000000EB00708A88004A
:1045E0000000EB00808A8800D0C080004600DE001A
:1045F0006F4060000080FB00908A8800D0C080007F
:104600004A00DE006F4060000080FB00A08A880046
:104610000000EB00608B88000000EB00708B8800CE
:10462000400A200026530200000000004E00DE0079
:10463000200798002E009000E10F50000A00320081
:10464000E10F500005003900E20F50000900320070
:10465000E30F50000A0032000C0037001000200069
:10466000808B8800090037000000EB00808B8800F9
:104670000600370020002000808B880003003700F0
:1046800030002000808B880000000000A005200082
:104690002653020000000000B08E8800F0052000C4
:1046A000265302000000000020079800AE00900092
:1046B00000102000008060000000E00003003A00CD
:1046C0001E4090000040E800104798001E409000F7
:1046D0000080FB00C08E88000040EB00004F780097
:1046E00020002000100798000B0037001E009000EB
:1046F0000000E80080004000401D210000804000D4
:104700008000EB00010878001E0090000000E80027
:10471000100798001E4FE8001E009000F30F500095
:10472000F2FF3600E00920002653020000000000DE
:104730000000E800F08F8800300A200026530200B5
:104740000000000080407800500A210001487800F5
:1047500060022000265302000000000070908800D4
:10476000FF080700060107004F0478000080FA00E8
:10477000000006000400FA00C00E81004200DE00C6
:1047800012600200000000009085880000242200D2
:104790008040EB00014878000002220010407800C1
:1047A000614060000004E0000300320000242200A9
:1047B00011C0B300014878000002220010407800C8
:1047C000624060000004E000030032000024220088
:1047D00021C0B30001487800000222001040780098
:1047E000644060000004E000030032000024220066
:1047F00031C0B30001487800002422001040780046
:104800000080FB00A0858800702222001040780004
:104810000080FB00B08588008022220010407800D4
:104820000080FB00C085880050118100D085880081
:104830000000EB00E08588000000EB00F0858800B8
:10484000D0052200104078000004E000080032008B
:1048500080222200104078000004E00004003200B2
:10486000C022220011C0B3000148780003003700C5
:10487000C02222008040EB0001487800302922004D
:10488000104078000004E00003003200C022220043
:1048900021C0B30001487800C022220010407800F7
:1048A0000080FB0000868800A00E81004200DE0030
:1048B000108688003022810041228100008FBE00D6
:1048C00070222200104078000004E0000500320051
:1048D0001E0078009E00900060001000E08018002C
:1048E000008FBE001E007800208688001E00900009
:1048F000308688006023220010407800EB4F500083
:10490000040032006023220010407800EC4F500079
:104910000A003A003080210070708800700E81001B
:10492000126002000000000040868800800E8100B6
:104930001260020000000000508688006023220000
:1049400010407800ED4F500004003A003000200085
:10495000707088004012810060868800000381002A
:1049600001FA2000A45F02000000000070868800A9
:104970000000EB00808688000000EB009086880035
:104980000000EB00A08688000000EB00B0868800E5
:10499000C0018100C0868800E0018100D0868800C7
:1049A00070118100E08688003023220010407800DA
:1049B0000080FB00F08688009170800000002400D9
:1049C0000080600000F0A7000000EA000000E9009D
:1049D0004F00DE000087880000232200104078008E
:1049E0000080FB0010878800C0052200104078007E
:1049F0000080FB00208788001023220010407800F0
:104A00000080FB00308788002024220010407800BE
:104A10000080FB004087880070028100508788007A
:104A20008002810091028100BC170200000000009A
:104A30000000780060878800A0028100B102810038
:104A4000BC1702000000000000007800708788009A
:104A5000D0018100808788000002810020A98800A1
:104A6000B00720002653020000000000509088008C
:104A700050022000265302000000000060908800D1
:104A800060022000265302000000000070908800A1
:104A900070232200104078000080FB0050BC88008A
:104AA0007023220010407800BA9502000000000038
:104AB00060BC880080232200104078000080FB004A
:104AC00070BC8800D011810080BC8800E01181009A
:104AD00090BC8800E0232200104078000080FB009A
:104AE000A0BC8800E00F8100B0BC88001007220045
:104AF000104078000080FB00C0BC8800100A200035
:104B00002653020000000000F0A08800000A2000E8
:104B1000265302000000000000A188000080FA0077
:104B2000000006000000FA003022810030B3880047
:104B30004022810040B38800500F810050B38800AC
:104B4000600F810060B38800300F810070B388006F
:104B5000400F810080B38800C01B22001040780005
:104B60000080FB0080B38800D01B2200104078003A
:104B70000080FB0090B388000080FA00000006006F
:104B80000200FA000040EB00004F78003024810062
:104B9000C0B7880040248100D0B78800502481002D
:104BA000E0B7880060248100F0B78800702481009D
:104BB00000B888008024810010B888000040EB0015
:104BC000004F78000D0037001E80FB006B01400095
:104BD0001E80FB0080004000402922000080400031
:104BE000900078000200E80000014000606F2100A2
:104BF00000004100010878001E4FE8001E407800C8
:104C0000EF4F5000F0FF36000040EB00004F7800FF
:104C10000D0037001E80FB007B0140001E80FB0062
:104C200080004000402B220000804000900078006F
:104C30000200E80000014000606F21000000410018
:104C4000010878001E4FE8001E407800EF4F50002A
:104C5000F0FF3600E022810070BA8800F022810067
:104C600080BA88000023810090BA88001023810058
:104C7000A0BA88000080FA00000006000C00FA00CC
:104C80002007980061479800420798005307980052
:104C90000040EB00004F78000040EB0020479800F8
:104CA0000040EB00104798005E4090000080FB0041
:104CB000E30F500030023200E30F500007003C00C9
:104CC000E10F500053013200E10F5000CD013C00D4
:104CD0000000E000060032002E023700E50F500011
:104CE00027023200E50F5000E201350029023700AB
:104CF0004E4090000080FB00F50F5000A2003200F3
:104D0000F50F500012003C00E30F50006C00320021
:104D1000E30F500007003C00E10F5000410032005B
:104D2000E10F500042003C000000E0001D00320096
:104D300018023700E90F500089003200EA0F5000D6
:104D40008C003200E40F50006A003200110237007C
:104D5000FB0F5000D8003200FB0F500007003C0052
:104D6000F80F5000AF003200FA0F5000BE003200C2
:104D7000F60F50009500320006023700310E200079
:104D8000810F5000E7003200410E2000810F5000DB
:104D9000FA003200210E2000810F5000D3003200B3
:104DA000FC013700D1C080000000240000806000BA
:104DB0000000E000030032000040EB00004F7800EC
:104DC00013013700DE00900000712200808F500038
:104DD000020036000071220050079800DE009000AB
:104DE000A1248900CE4090004E0090001040900019
:104DF00000C05000404798004E4090000080FB00EB
:104E0000CE0090000000E80000004000008040005C
:104E1000DE0090000108780010C0B300004F780059
:104E2000FB0037000040EB00004F7800F80037002F
:104E30005E009000E10F5000030036000040EB00E0
:104E4000004F78001D0037005E0090008040780021
:104E500070222200014878000000EB005011890008
:104E6000802222008040EB0001487800510181003F
:104E700000002200008060000000E0000700320017
:104E80004023220041C0B300014878005023220093
:104E9000C1CFB3000148780006003700402322004C
:104EA00021C0B3000148780050232200E1CFB300B5
:104EB0000148780010C0B300004F7800D4003700DC
:104EC0005E009000E20F5000030036000040EB004F
:104ED000004F7800060037005E00900080407800A8
:104EE000802222000148780010C0B300004F7800F3
:104EF000C7003700DE00900000712200808F500054
:104F0000030036000040EB00004F7800130037002C
:104F1000DE009000511189007022220010407800BC
:104F20000004E00006003200501181000200200061
:104F300003FC2300FA6902000000000005003700AE
:104F400050118100A299290093052400FA690200FA
:104F50000000000010C0B300004F7800AC00370024
:104F60005E0090003022890010C0B300004F78002E
:104F7000A70037005E0090004022890010C0B300F7
:104F8000004F7800A2003700DE0090000071220080
:104F9000808F5000030036000040EB00004F780087
:104FA00009003700DE009000711189007011810046
:104FB000A860020000000000403D02000000000068
:104FC00010C0B300004F7800910037005E009000E1
:104FD000E10F5000030036000040EB00004F780066
:104FE0000F0037005E0090008040780030232200E0
:104FF0000148780030232200104078000004E000CF
:1050000003003200612EA900652EA80002003700BF
:10501000652EA900612EA80010C0B300004F7800D3
:105020007B0037005E009000E10F50000300360067
:105030000040EB00004F78000A0037005E0090004F
:1050400080407800002322000148780000232200DD
:10505000104078007A3D02000000000010C0B3004C
:10506000004F78006A0037005E009000E10F5000AA
:10507000030036000040EB00004F78000D003700C1
:105080005E009000804078001023220001487800E4
:1050900010232200104078000004E00002003200DB
:1050A000542EA80001003700542EA90010C0B300F0
:1050B000004F7800560037005E009000E10F50006E
:1050C000030036000040EB00004F78000600370078
:1050D0005E00900080407800202422000148780083
:1050E00010C0B300004F780049003700DE00900088
:1050F000F1018900300181000030A00030018900F9
:10510000F0018100B1C7B300F85B020000000000AD
:10511000004F7800300181000020A100300189009B
:105120003B0037005E00900080407800C004220001
:1051300001487800300181000020A0003001890082
:10514000C0042200104078000080FB0051C2B30070
:10515000F85B020000000000004F78003001810081
:105160000020A10030018900C00422001040780016
:105170000638020000000000250037005E009000A5
:1051800080407800D004220001487800300181007E
:105190000020A00030018900D004220010407800D7
:1051A0000080FB0061C2B300F85B02000000000059
:1051B000004F7800300181000020A10030018900FB
:1051C000C0042200104078000004E0000300320018
:1051D0000040EB00104798000200370010C0B300F9
:1051E000104798009E40900020C6B300AE550200C4
:1051F00000000000008023002143200028960200C8
:1052000000000000C6550200000000000000000081
:10521000E00037004E4090000080FB00E40F50009B
:105220002C003200E40F500007003C00E20F500059
:1052300013003200E20F500018003C000000E000B4
:1052400008003200D3003700E60F50006200320041
:10525000E60F50005D003500E70F5000610032009E
:10526000CC0037005E009000804078007023220060
:105270000148780010C0B300004F7800600037008C
:105280005E00900080407800802322000148780072
:1052900010C0B300004F780059003700DE009000C6
:1052A000007D2000808F5000030036000040EB009E
:1052B000004F780006003700DE009000D111890011
:1052C000D01181008048880010C0B300004F7800E2
:1052D0004B003700F10020005E009000DC5C020013
:1052E000000000000000E000070032005E009000B7
:1052F0000000EA0050079800E023220011C0B3002C
:105300000148780003003700E02322008040EB00D2
:1053100001487800DE009000007D2000808F500062
:1053200002003600007D200050079800DE0090004B
:10533000E1118900E0232200104078000004E00021
:1053400003003200E01181000000EA00E011890052
:105350005E0090000000E0000A003A00E023220016
:1053600010407800804078000040EB00C2610200ED
:1053700000000000F02322008040EB00014878008C
:105380000D003700F023220011C0B300014878005F
:1053900010032200904078000134A10001487800F9
:1053A000E0232200104078008040780010C0B30055
:1053B000C261020000000000DE0090003148880059
:1053C00010C0B300004F78000D0037000040EB0024
:1053D000004F78000A0037000040EB00004F7800D3
:1053E000070037005E009000804078001007220020
:1053F0000148780010C0B300004F780000000000A2
:10540000640037004E4090000080FB00E000400048
:10541000F0032000808F50005B003E00CE409000E3
:1054200080CAB30000C0400020479800AE40900002
:105430005E009000F85B020000000000004F780062
:105440001E4078000004E000080032004E4090004A
:105450000080FB00CE0090000000E800000040004B
:1054600000804000DE00900001087800000000008D
:10547000480037004E4090000080FB00A10420004F
:10548000810F500019003200B1042000810F50003C
:105490002700320021022000810F50003C003A001A
:1054A000DE00900001028900300181000020A00090
:1054B000300189000002810021C2B300F85B0200C4
:1054C00000000000004F78004E4090000080FB007C
:1054D000CE0090000000E800000040000080400086
:1054E000DE009000010878002200370011CAB300E6
:1054F0005E009000F85B020000000000004F7800A2
:105500001E4078000004E000080032004E40900089
:105510000080FB00CE0090000000E800000040008A
:1055200000804000DE009000010878001100370084
:1055300001CAB3005E009000F85B020000000000AA
:10554000004F78001E4078000004E00008003200A0
:105550004E4090000080FB00CE0090000000E8006C
:105560000000400000804000DE009000010878004C
:1055700000000000070037000000000005003700B1
:1055800000000000030037000000000001003700A9
:1055900000000000900A210011C0B300014878000B
:1055A0001E4078000080FA00000006000C00FA009F
:1055B0000040EB00004F78000040EB0010479800DF
:1055C00023C8A90060858000E10F500006003E005E
:1055D0000000EB00608588000000EB0020079800C9
:1055E0001C0507008C013700E00421001040780002
:1055F000E84F5000060032000000EB006085880094
:105600000000EB0020079800120507008201370018
:10561000E0042100104078000080FB000000E90059
:10562000E40040002000210000804000104078008D
:10563000104F9800E0042100104078000080FB002B
:105640000080E900E40040002000210000804000CC
:1056500010407800004F98004E0090008082880033
:10566000E00421001040780000C0E900804078008C
:1056700060002100780107003007980081828000D7
:105680003E009000808F5000060032000000EB00CA
:10569000608588000000EB0020079800ED040700FB
:1056A0005D0137000000EB00608588000000EB0022
:1056B00020079800203F220051C0B3000148780025
:1056C00020002100904078006022220010407800E5
:1056D00080CF5000040032002000210010407800EC
:1056E0000004E00046013A002000210090407800CC
:1056F000600521000148780020808000804078000B
:105700007005210001487800B0002100104F78009A
:105710008000210010407800504798009000210040
:105720001040780040479800200A21008040EB009C
:1057300001487800200A2100104078000004E000B1
:105740000A003200400A210011C0B300014878006D
:10575000200A210090407800300A21001040780093
:1057600080C04000200A210001487800208080008D
:10577000E60F500088003200F00F5000E5003200C4
:10578000E30F50000E013A005E4090000080FB00E5
:10579000E40F500049003200E40F50000C003C00C0
:1057A000E10F500034003200E10F500003003C00D4
:1057B0000000E0000F0032006F003700E20F5000E1
:1057C00033003200E30F5000360032006A00370029
:1057D000E60F500050003200E60F5000490035003F
:1057E000E70F50004D003200E80F5000500032002B
:1057F00061003700CE40900060232200014878000D
:10580000DCFB0700CE40900030C6B30080CF5000D4
:1058100004003E00020B21009E4078002E00900004
:1058200068010700CE40900030C6B30080CF500022
:1058300008003600CE40900070CCB30080CF5000FE
:1058400004003E00221421009E4078002E009000AB
:105850005C010700CE40900070CCB30080CF5000B8
:1058600004003600421D21009E4078002E0090006A
:105870005401070047003700BEFB07008278210073
:105880009E4078002E0090004E0107004100370036
:10589000822F21009E4078002E00900049010700D1
:1058A0003C003700B3FB0700A23821009E4078007F
:1058B0002E0090004301070036003700ADFB0700C3
:1058C000CE40900050C4B30080CF500004003E0092
:1058D000E24A21009E4078002E0090003901070026
:1058E000CE40900090C4B30080CF5000040036003A
:1058F000C24121009E4078002E0090003101070037
:1059000024003700025421009E4078002E009000B1
:105910002C0107001F0037001E003700225D210008
:105920009E4078002E0090002601070019003700E5
:10593000CE40900000C4B30080CF500005003E0070
:1059400078FC0700426621009E4078002E009000FF
:105950001C010700CE40900010C4B30080CF50005F
:1059600004003600626F21009E4078002E009000F7
:105970001401070007003700208080008040780075
:10598000602222001040780022C0B300DF00070030
:1059900000000000910037005E4090000080FB0096
:1059A000E20F50002C003200E20F500005003C00D6
:1059B0000000E0000A003200E10F50002200320037
:1059C0004C003700E50F500036003200E70F500062
:1059D0003E003200E40F5000230032004500370043
:1059E000CE40900030C6B30080CF500003003E0090
:1059F000010B21002E009000FA010700CE4090001C
:105A000030C6B30080CF500007003600CE40900073
:105A100070CCB30080CF500003003E002114210061
:105A20002E009000EF010700CE40900070CCB30034
:105A300080CF500003003600411D21002E00900051
:105A4000E801070032003700817821002E00900025
:105A5000E40107002E003700812F21002E00900066
:105A6000E00107002A003700CE40900050C4B30088
:105A700080CF500003003E00E14A21002E0090003C
:105A8000D8010700CE40900090C4B30080CF5000F2
:105A900003003600C14121002E009000D101070013
:105AA0001B003700A000210010407800304F980004
:105AB000B000210010407800204F9800DE009000D8
:105AC0002E0090003602070011003700A0002100D0
:105AD00010407800304F9800B0002100104078004E
:105AE000204F9800DE0090002E0090002C0207004E
:105AF000070037002080800080407800602222006C
:105B00001040780022C0B3008000070000000000B1
:105B100032003700C0002100904078001147980003
:105B20005E4090000080FB00E40F50000D0032004A
:105B3000E40F500003003C00E20F5000040032006C
:105B400017003700E70F500015003C000A0037002F
:105B5000822F21009E4090002E0090001701070028
:105B600016003700E24A21009E4090002E0090006F
:105B70001201070011003700A0002100104078003A
:105B8000304F9800B000210010407800204F98005E
:105B9000DE0090002E009000010207000700370091
:105BA0002080800080407800602222001040780031
:105BB00022C0B300550007000000000007003700B6
:105BC0002080800080407800602222001040780011
:105BD00012C0B3004D000700000000000000EB0001
:105BE000608588000000EB0020079800B01180005D
:105BF00020479800801F8100E013890013003700C0
:105C00000000EB00608588000000EB002007980092
:105C10009003070000000000A00A21008040EB0074
:105C200001487800701F81006693020000000000A8
:105C30000000EB008093020000000000B49302001B
:105C400000000000B01180002047980023C8A80081
:105C50000080FA00000006000800FA002007980003
:105C60006147980000C0EB00004F780000C0EB00D7
:105C700010479800140037002E00900090407800E4
:105C80001E40900000C06800204798002E00900041
:105C90000000E800200798002E4090000080FB00E4
:105CA0000120280000804000104078001E4068005D
:105CB000104798002E4090000080FB000130280023
:105CC00000804000104F78006E4090000080FB0084
:105CD0000000EA004F00DE0000407800EE40900037
:105CE0008140E900614798000004E000E2FF3A00CB
:105CF0001E80FB00C800DD001E4090000080FB00FD
:105D0000010070000080FA00000006000600FA00A2
:105D100020479800314798004247980060052100CD
:105D2000AE40900001487800BE40900000C8B3002B
:105D300080C04000700521000148780080052100E6
:105D4000CE40900001487800E009210031C0B30046
:105D500001487800E0092100104078008040780078
:105D600060052100BCFF0700000F7800E00921005A
:105D7000104078008081FB001E4178006105210001
:105D800081804100824878008040E800E0092100DD
:105D900001487800E0092100104078008081FB0074
:105DA0001E419000610521008180410082487800F9
:105DB0008040E800E0092100014878000080FA00F6
:105DC000000006000E00FA0040079800214F9800DE
:105DD000620798000040EB00204798000040EB006D
:105DE000004F78000040EB00104798000000EB00E7
:105DF000200798006E009000904078002E48900098
:105E000080CF500007003100208080008040780063
:105E1000602222001040780032C0B300BBFF0700B0
:105E2000640037008E4890006E0090001040900093
:105E300000C05000004F9800CE00900000F02F00EE
:105E4000808060006E009000104078000080FB00B1
:105E50000080400020079800CE0090002E4890005F
:105E60000080FB00808040002E009000808F50005A
:105E700007003600208080008040780060222200E9
:105E80001040780032C0B300A0FF0700490037007F
:105E90002E489000004040002047980080052100D7
:105EA000AE4090000148780030C0B300004F780049
:105EB0008E48900011479800170037001E40900050
:105EC0000080FB00EE0090000000E80000004000B1
:105ED0000080400010007800300798001E81FB0011
:105EE000FE4090006005210000004100014878005C
:105EF0001E4FE8001E81FB00EE409000600521006F
:105F000000004100014878001E4FE8001E4090004C
:105F10000040E800104798001E4090008080FB0081
:105F20000E4890000081FB002E4890000080FB008E
:105F300000004100808F5000E0FF35002E409000AF
:105F4000E3404000E009210001487800E009210019
:105F50001040780080407800600521003EFF070077
:105F600030079800E0092100104078008081FB0094
:105F70006E419000610521008180410082487800D7
:105F80008040E800E009210001487800E009210094
:105F9000104078008081FB007E4190006105210067
:105FA00081804100824878008040E800E0092100BB
:105FB000014878000080FA00000006000C00FA009A
:105FC00030079800014F98005207980070C0B30046
:105FD000004F78000040EB00104798000000EB00F5
:105FE000100798005E009000904078000E489000E6
:105FF00080CF500007003100208080008040780072
:10600000602222001040780032C0B3003FFF07003A
:1060100072003700EE4090005E009000104090004B
:1060200000C0500060479800BE00900000F02F00B4
:10603000808060005E009000104078000080FB00CF
:106040000080400010079800BE0090000E489000AD
:106050000080FB00808040001E009000808F500078
:1060600007003600208080008040780060222200F7
:106070001040780032C0B30024FF070057003700FB
:10608000EE40900011479800190037001E80FB0079
:10609000E400400020002100008040001040780013
:1060A000504798001E80FB000000E800E40040001C
:1060B00020002100008040001040780040479800F8
:1060C0006E4090000080FB00AE0090005E019000EA
:1060D0000000E800000040000000410001087800D6
:1060E0001E4090000040E800104798001E4FE80056
:1060F0001E4090008080FB006E4090000081FB00FD
:106100000E4890000080FB000000D10000407800A5
:106110000080FB0000004100808F5000DBFF350055
:106120002E009000800178005E0190008E48900063
:106130003E009000D1FA0700FE409000800521004B
:1061400001487800EE409000900521000148780059
:10615000DE409000A005210001487800CE4090006C
:10616000B005210001487800E009210061C0B300BA
:1061700001487800E0092100104078008040780054
:1061800060052100B4FE070020079800E009210007
:10619000104078008081FB004E4190006105210095
:1061A00081804100824878008040E800E0092100B9
:1061B00001487800E0092100104078008081FB0050
:1061C0005E41900061052100818041008248780095
:1061D0008040E800E0092100014878000080FA00D2
:1061E000000006000C00FA004007980051079800D4
:1061F00040C0B300004F78000000EB00100798008B
:106200000040EB00404798008E4890005E009000F0
:106210001040900000C05000004F9800CE00900049
:1062200000F02F00808060005E0090001040780039
:106230000080FB000080400010079800CE00900016
:106240001E009000808F50000700360020808000E4
:1062500080407800602222001040780032C0B300F5
:10626000AAFE07004C0037008E4890005E009000A8
:106270001040900000C04000004F98001E80FB00BE
:10628000E400400020002100008040001040780021
:10629000704798001E80FB000000E800E40040000A
:1062A00020002100008040001040780060479800E6
:1062B0003E009000800178005E01900021C0B30094
:1062C0004E0090006DFA0700404798004E40900045
:1062D0000004E00007003A00208080008040780041
:1062E000602222001040780032C0B30087FE070011
:1062F000290037009E489000800521000148780061
:106300008E4890009005210001487800FE409000E2
:10631000A005210001487800EE409000B005210062
:1063200001487800E009210061C0B300014878000D
:10633000E0092100104078008040780060052100CD
:1063400045FE070030079800E00921001040780062
:106350008081FB006E419000610521008180410039
:10636000824878008040E800E00921000148780078
:10637000E0092100104078008081FB007E41900000
:106380006105210081804100824878008040E8005A
:10639000E0092100014878000080FA0000000600B2
:1063A0000800FA00881F780020079800310798003D
:1063B00030C0B300004F780010C0B3001047980001
:1063C0005E4090000080FB00E50F500003003200AB
:1063D000E70F500012003200A30037004E4090003B
:1063E0000080FB000000E00003003200E10F5000DD
:1063F000040032000600370030C0B300004F7800C0
:106400000600370030C0B300004F780003003700AB
:1064100010C0B300004F780095003700940037009B
:106420004E4090000080FB00E30F50004600320019
:10643000E30F500007003C00E10F50001D00320048
:10644000E10F50002A003C000000E000080032008C
:1064500081003700E50F500068003200E50F500062
:106460004D003500E60F5000730032007A0037000F
:10647000BE00900010268400808F50000A003A0071
:10648000300181000020A000300189000040EB00B5
:1064900010479800D005200026530200000000009D
:1064A000E0AE88000200370030C0B300004F780033
:1064B0006C0037003E049000D005200026530200F7
:1064C00000000000800F540006003A0030018100F7
:1064D0000030A000300189000040EB001047980018
:1064E0000200370030C0B300004F78005D00370075
:1064F00030018100640060000000E0000F00320005
:106500000041EB0021C5B3000040EB00665C0200D7
:106510000000000050C0B300004F78000000EB0006
:10652000E0AE88003001810000F0A0003001890059
:106530000040EB00104798000200370030C0B30065
:10654000004F78004700370030018100680060008C
:106550000000E0000D0032000041EB00C1C2B300BA
:1065600030C5B300665C02000000000050C0B300FC
:10657000004F78003001810000F0A0003001890058
:106580000040EB00104798000200370030C0B30015
:10659000004F780033003700300181006400600054
:1065A0000000E00012003200D00520002653020057
:1065B00000000000300798008005210021C0B300D2
:1065C00001487800EE4090009005210001487800D5
:1065D000FE40900090052100014878000040EB004B
:1065E0001047980050C0B300004F780002003700F9
:1065F00030C0B300004F78001A003700300181002E
:10660000680060000000E000080032003E009000DA
:10661000D1C5B300F85B020000000000004F780015
:1066200050C0B300004F78000200370030C0B30004
:10663000004F78000B0037003001810000F0A0000F
:106640003001890050C0B300004F78000040EB00DB
:10665000104798000300370010C0B300004F7800C7
:10666000030037000200370010C0B300004F78006D
:106670001E4090000004E00006003200602222006C
:10668000104078001E41780001C1B3009FFD070053
:1066900029003700E009210061C0B30001487800FB
:1066A000DE4090008005210001487800CE40900037
:1066B0009005210001487800FE409000A0052100CF
:1066C00001487800EE409000B005210001487800B4
:1066D000E00921001040780080407800600521002A
:1066E0005DFD070010079800E009210010407800C8
:1066F0008081FB002E4190006105210081804100D6
:10670000824878008040E800E009210001487800D4
:10671000E0092100104078008081FB003E4190009C
:106720006105210081804100824878008040E800B6
:10673000E009210001487800900A210011C0B3004F
:10674000014878004F0478000080FA00000006003D
:106750000200FA000040EB00004F7800200021000A
:10676000104078000004E0001D0032000040EB0003
:10677000004F7800090037001E80FB00E400400055
:106780002005210000804000104078000080FB00C0
:10679000F08F0200000000001E4FE800E009210019
:1067A000104078009E4F5000F3FF3E00E0092100AA
:1067B0008040EB00014878000000000011118000CB
:1067C00000102000008060000000E000FBFF3200AD
:1067D000900A21008040EB0001487800010037005A
:1067E000000000000188A9000080FA0000000600F7
:1067F0000E00FA006007980010C0B300004F780048
:106800000040EB00104798000040EB001047980054
:106810000F0037001E4090000081FB001E80FB002F
:106820000000E80080004000602621000080400059
:1068300010007800804078000280E800017778003E
:106840001E4090000040E800104798001E4FE800EE
:106850001E409000E34F5000EEFF36000E80E8002F
:10686000A20020008000EB00E61F020000000000F4
:10687000800078006E009000010878000040EB0076
:10688000104798000F0037001E4090000081FB0069
:106890001E80FB000000E800800040006026210010
:1068A0000080400010007800804078000280E800FE
:1068B000017778001E4090000040E80010479800E3
:1068C0001E4FE8001E409000E34F5000EEFF3600E0
:1068D0000E80E800A20020008000EB00E61F02000E
:1068E00000000000800078006E0090001100980009
:1068F0000040EB0010479800250037001E80FB0089
:106900000000E80080004000602621000080400078
:1069100090007800D0022000808F50000D003A00D7
:106920001E4090000081FB001E80FB000000E8007C
:106930000000E80080004000602621000080400048
:1069400010007800804078006600410001777800F0
:106950000B0037001E4090000081FB001E80FB00F2
:106960000000E80080004000602621000080400018
:1069700010007800804078006600410001777800C0
:106980001E4090000040E800104798001E4FE800AD
:106990001E409000E44F5000D8FF360066004700CC
:1069A000A20020008000EB00E61F020000000000B3
:1069B000800078006E009000210098000080FA00AE
:1069C000000006000000FA0060018100680060001D
:1069D0000000E0000200320010C0B3001B003700CE
:1069E00060018100640060000000E00002003200ED
:1069F00020C0B300150037006101810000102000A5
:106A0000008060000000E0000200320030C0B300EF
:106A10000E0037006101810000022000008060004C
:106A20000000E0000200320040C0B3000700370061
:106A300060018100700060000000E0000200320090
:106A400050C0B300010037000040EB000080FA00A6
:106A5000000006000200FA00200021008040EB0048
:106A6000014878000000EB00208088000040EB0027
:106A7000004F7800060037009E80FB006000210078
:106A8000008040008040EB00014878001E4FE80085
:106A90001E407800F04F5000F7FF36000000EB007A
